:020000040000FA
:1000000001288501860183160430850000308600B2
:1000100000308B00831207309F008601FF30A5005F
:10002000FF30A6000615861506178C208C208C2024
:100030008C208C20061186148C208C205828860158
:100040000614861606178C20861206168C208C2025
:100050005B28061934288618402806182F28861A87
:100060004328061A4F285228061186148C208C200B
:1000700086100614061386178C208C208C2072287C
:100080000130A500B428861206168C208C2006129A
:100090008615061386178C208C208C207228013040
:1000A000A600B428061386178C208C208C2072287A
:1000B000A50B1F285E28A60B0D286828861006149D
:1000C00006138617FF30A5008C208C208C20722808
:1000D0000612861506138617FF30A5008C208C208B
:1000E0008C20722886010615861506178C208C2018
:1000F0008C20061186148C208C2086100614861104
:1001000086168C208C208C20861206168C208C2043
:100110000D28A40BB42829280000000000000000CE
:1001200000000030A0000030A1000030A20000302C
:10013000A3000030A4000830A2009F2008000000A7
:100140000000000000000000000000000A30A000D5
:100150000530A400AE20A20B9F280800000005195E
:10016000B22889280530A40000000000000000002B
:100170002830A100BE20A00BAE280800000000001F
:10018000000000006430A300C820A10BBE280800B6
:06019000A30BC8280800C3
:02400E00103F61
:00000001FF
